{
  "address": "0xfA01AE0e15BD3e62dFcF780E048285E31F06b9b7",
  "abi": [
    {
      "anonymous": false,
      "inputs": [
        {
          "indexed": false,
          "internalType": "address",
          "name": "previousAdmin",
          "type": "address"
        },
        {
          "indexed": false,
          "internalType": "address",
          "name": "newAdmin",
          "type": "address"
        }
      ],
      "name": "AdminChanged",
      "type": "event"
    },
    {
      "anonymous": false,
      "inputs": [
        {
          "indexed": true,
          "internalType": "address",
          "name": "beacon",
          "type": "address"
        }
      ],
      "name": "BeaconUpgraded",
      "type": "event"
    },
    {
      "anonymous": false,
      "inputs": [
        {
          "indexed": false,
          "internalType": "bytes32",
          "name": "orderId",
          "type": "bytes32"
        }
      ],
      "name": "DisputeCreated",
      "type": "event"
    },
    {
      "anonymous": false,
      "inputs": [
        {
          "indexed": false,
          "internalType": "uint8",
          "name": "version",
          "type": "uint8"
        }
      ],
      "name": "Initialized",
      "type": "event"
    },
    {
      "anonymous": false,
      "inputs": [
        {
          "indexed": false,
          "internalType": "bytes32",
          "name": "orderId",
          "type": "bytes32"
        }
      ],
      "name": "OrderCancelled",
      "type": "event"
    },
    {
      "anonymous": false,
      "inputs": [
        {
          "indexed": false,
          "internalType": "bytes32",
          "name": "orderId",
          "type": "bytes32"
        }
      ],
      "name": "OrderConfirmed",
      "type": "event"
    },
    {
      "anonymous": false,
      "inputs": [
        {
          "indexed": false,
          "internalType": "bytes32",
          "name": "orderId",
          "type": "bytes32"
        },
        {
          "indexed": true,
          "internalType": "address",
          "name": "buyer",
          "type": "address"
        },
        {
          "indexed": true,
          "internalType": "address",
          "name": "seller",
          "type": "address"
        },
        {
          "indexed": false,
          "internalType": "uint256",
          "name": "amount",
          "type": "uint256"
        }
      ],
      "name": "OrderInitiated",
      "type": "event"
    },
    {
      "anonymous": false,
      "inputs": [
        {
          "indexed": true,
          "internalType": "bytes32",
          "name": "role",
          "type": "bytes32"
        },
        {
          "indexed": true,
          "internalType": "bytes32",
          "name": "previousAdminRole",
          "type": "bytes32"
        },
        {
          "indexed": true,
          "internalType": "bytes32",
          "name": "newAdminRole",
          "type": "bytes32"
        }
      ],
      "name": "RoleAdminChanged",
      "type": "event"
    },
    {
      "anonymous": false,
      "inputs": [
        {
          "indexed": true,
          "internalType": "bytes32",
          "name": "role",
          "type": "bytes32"
        },
        {
          "indexed": true,
          "internalType": "address",
          "name": "account",
          "type": "address"
        },
        {
          "indexed": true,
          "internalType": "address",
          "name": "sender",
          "type": "address"
        }
      ],
      "name": "RoleGranted",
      "type": "event"
    },
    {
      "anonymous": false,
      "inputs": [
        {
          "indexed": true,
          "internalType": "bytes32",
          "name": "role",
          "type": "bytes32"
        },
        {
          "indexed": true,
          "internalType": "address",
          "name": "account",
          "type": "address"
        },
        {
          "indexed": true,
          "internalType": "address",
          "name": "sender",
          "type": "address"
        }
      ],
      "name": "RoleRevoked",
      "type": "event"
    },
    {
      "anonymous": false,
      "inputs": [
        {
          "indexed": true,
          "internalType": "address",
          "name": "implementation",
          "type": "address"
        }
      ],
      "name": "Upgraded",
      "type": "event"
    },
    {
      "inputs": [],
      "name": "DEFAULT_ADMIN_ROLE",
      "outputs": [
        {
          "internalType": "bytes32",
          "name": "",
          "type": "bytes32"
        }
      ],
      "stateMutability": "view",
      "type": "function"
    },
    {
      "inputs": [],
      "name": "SUPPORT_ROLE",
      "outputs": [
        {
          "internalType": "bytes32",
          "name": "",
          "type": "bytes32"
        }
      ],
      "stateMutability": "view",
      "type": "function"
    },
    {
      "inputs": [
        {
          "internalType": "bytes32",
          "name": "orderId",
          "type": "bytes32"
        },
        {
          "internalType": "string",
          "name": "_message",
          "type": "string"
        },
        {
          "internalType": "bytes[]",
          "name": "_signatures",
          "type": "bytes[]"
        }
      ],
      "name": "cancel",
      "outputs": [],
      "stateMutability": "nonpayable",
      "type": "function"
    },
    {
      "inputs": [
        {
          "internalType": "bytes32",
          "name": "orderId",
          "type": "bytes32"
        }
      ],
      "name": "confirmOrder",
      "outputs": [],
      "stateMutability": "nonpayable",
      "type": "function"
    },
    {
      "inputs": [
        {
          "internalType": "bytes32",
          "name": "orderId",
          "type": "bytes32"
        }
      ],
      "name": "disputeOrder",
      "outputs": [],
      "stateMutability": "nonpayable",
      "type": "function"
    },
    {
      "inputs": [
        {
          "internalType": "bytes32",
          "name": "role",
          "type": "bytes32"
        }
      ],
      "name": "getRoleAdmin",
      "outputs": [
        {
          "internalType": "bytes32",
          "name": "",
          "type": "bytes32"
        }
      ],
      "stateMutability": "view",
      "type": "function"
    },
    {
      "inputs": [
        {
          "internalType": "bytes32",
          "name": "role",
          "type": "bytes32"
        },
        {
          "internalType": "address",
          "name": "account",
          "type": "address"
        }
      ],
      "name": "grantRole",
      "outputs": [],
      "stateMutability": "nonpayable",
      "type": "function"
    },
    {
      "inputs": [
        {
          "internalType": "bytes32",
          "name": "role",
          "type": "bytes32"
        },
        {
          "internalType": "address",
          "name": "account",
          "type": "address"
        }
      ],
      "name": "hasRole",
      "outputs": [
        {
          "internalType": "bool",
          "name": "",
          "type": "bool"
        }
      ],
      "stateMutability": "view",
      "type": "function"
    },
    {
      "inputs": [],
      "name": "initialize",
      "outputs": [],
      "stateMutability": "nonpayable",
      "type": "function"
    },
    {
      "inputs": [
        {
          "internalType": "bytes32",
          "name": "orderId",
          "type": "bytes32"
        },
        {
          "internalType": "address",
          "name": "seller",
          "type": "address"
        }
      ],
      "name": "initiateOrder",
      "outputs": [],
      "stateMutability": "payable",
      "type": "function"
    },
    {
      "inputs": [],
      "name": "proxiableUUID",
      "outputs": [
        {
          "internalType": "bytes32",
          "name": "",
          "type": "bytes32"
        }
      ],
      "stateMutability": "view",
      "type": "function"
    },
    {
      "inputs": [
        {
          "internalType": "bytes32",
          "name": "role",
          "type": "bytes32"
        },
        {
          "internalType": "address",
          "name": "account",
          "type": "address"
        }
      ],
      "name": "renounceRole",
      "outputs": [],
      "stateMutability": "nonpayable",
      "type": "function"
    },
    {
      "inputs": [
        {
          "internalType": "bytes32",
          "name": "orderId",
          "type": "bytes32"
        },
        {
          "internalType": "bool",
          "name": "cancel",
          "type": "bool"
        }
      ],
      "name": "resolveDispute",
      "outputs": [],
      "stateMutability": "nonpayable",
      "type": "function"
    },
    {
      "inputs": [
        {
          "internalType": "bytes32",
          "name": "role",
          "type": "bytes32"
        },
        {
          "internalType": "address",
          "name": "account",
          "type": "address"
        }
      ],
      "name": "revokeRole",
      "outputs": [],
      "stateMutability": "nonpayable",
      "type": "function"
    },
    {
      "inputs": [
        {
          "internalType": "bytes4",
          "name": "interfaceId",
          "type": "bytes4"
        }
      ],
      "name": "supportsInterface",
      "outputs": [
        {
          "internalType": "bool",
          "name": "",
          "type": "bool"
        }
      ],
      "stateMutability": "view",
      "type": "function"
    },
    {
      "inputs": [
        {
          "internalType": "address",
          "name": "newImplementation",
          "type": "address"
        }
      ],
      "name": "upgradeTo",
      "outputs": [],
      "stateMutability": "nonpayable",
      "type": "function"
    },
    {
      "inputs": [
        {
          "internalType": "address",
          "name": "newImplementation",
          "type": "address"
        },
        {
          "internalType": "bytes",
          "name": "data",
          "type": "bytes"
        }
      ],
      "name": "upgradeToAndCall",
      "outputs": [],
      "stateMutability": "payable",
      "type": "function"
    }
  ],
  "numDeployments": 1,
  "solcInputHash": "49d98de60edad11df80b8c7e180effd7",
  "bytecode": "0x60a06040523060805234801561001457600080fd5b5060805161209761004c6000396000818161065c0152818161069c01528181610ad701528181610b170152610d7101526120976000f3fe6080604052600436106100fe5760003560e01c80634f1ef286116100955780638a700e88116100645780638a700e881461029557806391d14854146102a857806394b059ab146102c8578063a217fddf146102fc578063d547741f1461031157600080fd5b80634f1ef2861461023857806350d18b701461024b57806352d1902d1461026b5780638129fc1c1461028057600080fd5b806336568abe116100d157806336568abe146101b85780633659cfe6146101d85780633e4e3792146101f857806343a0e3e61461021857600080fd5b806301ffc9a714610103578063185832c214610138578063248a9ca31461015a5780632f2ff15d14610198575b600080fd5b34801561010f57600080fd5b5061012361011e366004611ad4565b610331565b60405190151581526020015b60405180910390f35b34801561014457600080fd5b50610158610153366004611bb5565b610368565b005b34801561016657600080fd5b5061018a610175366004611cd6565b600090815260c9602052604090206001015490565b60405190815260200161012f565b3480156101a457600080fd5b506101586101b3366004611d0b565b6105aa565b3480156101c457600080fd5b506101586101d3366004611d0b565b6105d4565b3480156101e457600080fd5b506101586101f3366004611d37565b610652565b34801561020457600080fd5b50610158610213366004611cd6565b610731565b34801561022457600080fd5b50610158610233366004611d52565b610847565b610158610246366004611d87565b610acd565b34801561025757600080fd5b50610158610266366004611cd6565b610b99565b34801561027757600080fd5b5061018a610d64565b34801561028c57600080fd5b50610158610e17565b6101586102a3366004611d0b565b610f27565b3480156102b457600080fd5b506101236102c3366004611d0b565b611083565b3480156102d457600080fd5b5061018a7fe1bb029b7f4f8898e3ea44ceab083b5d93b14e8dd01ea4b170b110de8472fe6481565b34801561030857600080fd5b5061018a600081565b34801561031d57600080fd5b5061015861032c366004611d0b565b6110ae565b60006001600160e01b03198216637965db0b60e01b148061036257506301ffc9a760e01b6001600160e01b03198316145b92915050565b80516002146103be5760405162461bcd60e51b815260206004820152601c60248201527f496e76616c6964206e756d626572206f66207369676e6174757265730000000060448201526064015b60405180910390fd5b600061040e84846040516103d3929190611dd5565b60405180910390207f19457468657265756d205369676e6564204d6573736167653a0a3332000000006000908152601c91909152603c902090565b600086815260fb602052604090209091506001600382015460ff16600481111561043a5761043a611de5565b146104875760405162461bcd60e51b815260206004820152601860248201527f496e76616c696420737461746520666f722063616e63656c000000000000000060448201526064016103b5565b60005b835181101561056e5760006104d98583815181106104aa576104aa611dfb565b60200260200101516040516020016104c29190611e35565b60408051601f1981840301815291905285906110d3565b9050811580156104f5575082546001600160a01b038281169116145b8061051a575081600114801561051a575060018301546001600160a01b038281169116145b61055b5760405162461bcd60e51b8152602060048201526012602482015271496e76616c6964207369676e61747572657360701b60448201526064016103b5565b508061056681611e67565b91505061048a565b506040518681527f5152abf959f6564662358c2e52b702259b78bac5ee7842a0f01937e670efcc7d9060200160405180910390a1505050505050565b600082815260c960205260409020600101546105c5816110f7565b6105cf8383611101565b505050565b6001600160a01b03811633146106445760405162461bcd60e51b815260206004820152602f60248201527f416363657373436f6e74726f6c3a2063616e206f6e6c792072656e6f756e636560448201526e103937b632b9903337b91039b2b63360891b60648201526084016103b5565b61064e8282611187565b5050565b6001600160a01b037f000000000000000000000000000000000000000000000000000000000000000016300361069a5760405162461bcd60e51b81526004016103b590611e80565b7f00000000000000000000000000000000000000000000000000000000000000006001600160a01b03166106e360008051602061201b833981519152546001600160a01b031690565b6001600160a01b0316146107095760405162461bcd60e51b81526004016103b590611ecc565b610712816111ee565b6040805160008082526020820190925261072e91839190611232565b50565b600081815260fb6020526040902080546001600160a01b031633146107985760405162461bcd60e51b815260206004820181905260248201527f4f6e6c79207468652062757965722063616e207374617274206469737075746560448201526064016103b5565b6001600382015460ff1660048111156107b3576107b3611de5565b146108005760405162461bcd60e51b815260206004820152601d60248201527f4f72646572206973206e6f7420696e20612076616c696420737461746500000060448201526064016103b5565b6003818101805460ff191690911790556040518281527fc5e88e0e17c4064b281ccf73a1bebb1b2c329fd5815939182883f85e7fa67d339060200160405180910390a15050565b7fe1bb029b7f4f8898e3ea44ceab083b5d93b14e8dd01ea4b170b110de8472fe64610871816110f7565b600083815260fb6020526040902060038082015460ff16600481111561089957610899611de5565b146108e65760405162461bcd60e51b815260206004820152601b60248201527f4f72646572206973206e6f7420696e2076616c6964207374617465000000000060448201526064016103b5565b82156109da57805460028201546040516000926001600160a01b031691908381818185875af1925050503d806000811461093c576040519150601f19603f3d011682016040523d82523d6000602084013e610941565b606091505b50509050806109925760405162461bcd60e51b815260206004820152601d60248201527f4661696c656420746f2073656e6420457468657220746f20627579657200000060448201526064016103b5565b60038201805460ff191660041790556040518581527f5152abf959f6564662358c2e52b702259b78bac5ee7842a0f01937e670efcc7d9060200160405180910390a150610ac7565b600181015460028201546040516000926001600160a01b031691908381818185875af1925050503d8060008114610a2d576040519150601f19603f3d011682016040523d82523d6000602084013e610a32565b606091505b5050905080610a835760405162461bcd60e51b815260206004820152601e60248201527f4661696c656420746f2073656e6420457468657220746f2073656c6c6572000060448201526064016103b5565b60038201805460ff191660021790556040518581527f027631263e23bef717bc3e6111c73c0e6600933fbacc5868456a31ff1c1111079060200160405180910390a1505b50505050565b6001600160a01b037f0000000000000000000000000000000000000000000000000000000000000000163003610b155760405162461bcd60e51b81526004016103b590611e80565b7f00000000000000000000000000000000000000000000000000000000000000006001600160a01b0316610b5e60008051602061201b833981519152546001600160a01b031690565b6001600160a01b031614610b845760405162461bcd60e51b81526004016103b590611ecc565b610b8d826111ee565b61064e82826001611232565b600081815260fb6020526040902080546001600160a01b03163314610c0c5760405162461bcd60e51b8152602060048201526024808201527f4f6e6c79207468652062757965722063616e20636f6e6669726d20746865206f604482015263393232b960e11b60648201526084016103b5565b6001600382015460ff166004811115610c2757610c27611de5565b14610c745760405162461bcd60e51b815260206004820152601d60248201527f4f72646572206973206e6f7420696e20612076616c696420737461746500000060448201526064016103b5565b600181015460028201546040516000926001600160a01b031691908381818185875af1925050503d8060008114610cc7576040519150601f19603f3d011682016040523d82523d6000602084013e610ccc565b606091505b5050905080610d1d5760405162461bcd60e51b815260206004820152601e60248201527f4661696c656420746f2073656e6420457468657220746f2073656c6c6572000060448201526064016103b5565b60038201805460ff191660021790556040518381527f027631263e23bef717bc3e6111c73c0e6600933fbacc5868456a31ff1c1111079060200160405180910390a1505050565b6000306001600160a01b037f00000000000000000000000000000000000000000000000000000000000000001614610e045760405162461bcd60e51b815260206004820152603860248201527f555550535570677261646561626c653a206d757374206e6f742062652063616c60448201527f6c6564207468726f7567682064656c656761746563616c6c000000000000000060648201526084016103b5565b5060008051602061201b83398151915290565b600054610100900460ff1615808015610e375750600054600160ff909116105b80610e515750303b158015610e51575060005460ff166001145b610eb45760405162461bcd60e51b815260206004820152602e60248201527f496e697469616c697a61626c653a20636f6e747261637420697320616c72656160448201526d191e481a5b9a5d1a585b1a5e995960921b60648201526084016103b5565b6000805460ff191660011790558015610ed7576000805461ff0019166101001790555b610edf61139d565b801561072e576000805461ff0019169055604051600181527f7f26b83ff96e1f2b6a682f133852f6798a09c465da95921460cefb38474024989060200160405180910390a150565b60003411610f775760405162461bcd60e51b815260206004820181905260248201527f416d6f756e74206d7573742062652067726561746572207468616e207a65726f60448201526064016103b5565b600082815260fb602052604081206003015460ff166004811115610f9d57610f9d611de5565b14610fea5760405162461bcd60e51b815260206004820152601960248201527f4f7264657220616c726561647920696e697469616c697a65640000000000000060448201526064016103b5565b600082815260fb602052604090208054336001600160a01b0319918216178255600180830180549092166001600160a01b0385161790915534600283015560038201805460ff191682800217905550604080518481523460208201526001600160a01b0384169133917f1d583aff818ddfe7eb5a6dee761d6418028396935be03415c535d57df7969c0f910160405180910390a3505050565b600091825260c9602090815260408084206001600160a01b0393909316845291905290205460ff1690565b600082815260c960205260409020600101546110c9816110f7565b6105cf8383611187565b60008060006110e285856113ba565b915091506110ef816113ff565b509392505050565b61072e8133611549565b61110b8282611083565b61064e57600082815260c9602090815260408083206001600160a01b03851684529091529020805460ff191660011790556111433390565b6001600160a01b0316816001600160a01b0316837f2f8788117e7eff1d82e926ec794901d17c78024a50270940304540a733656f0d60405160405180910390a45050565b6111918282611083565b1561064e57600082815260c9602090815260408083206001600160a01b0385168085529252808320805460ff1916905551339285917ff6391f5c32d9c69d2a47ea670b442974b53935d1edc7fd64eb21e047a839171b9190a45050565b6111f9600033611083565b61072e5760405162461bcd60e51b815260206004820152600a60248201526927b7363c9020b236b4b760b11b60448201526064016103b5565b7f4910fdfa16fed3260ed0e7147f7cc6da11a60208b5b9406d12a635614ffd91435460ff1615611265576105cf836115a2565b826001600160a01b03166352d1902d6040518163ffffffff1660e01b8152600401602060405180830381865afa9250505080156112bf575060408051601f3d908101601f191682019092526112bc91810190611f18565b60015b6113225760405162461bcd60e51b815260206004820152602e60248201527f45524331393637557067726164653a206e657720696d706c656d656e7461746960448201526d6f6e206973206e6f74205555505360901b60648201526084016103b5565b60008051602061201b83398151915281146113915760405162461bcd60e51b815260206004820152602960248201527f45524331393637557067726164653a20756e737570706f727465642070726f786044820152681a58589b195555525160ba1b60648201526084016103b5565b506105cf83838361163e565b6113a5611663565b6113ad611663565b6113b86000336116ce565b565b60008082516041036113f05760208301516040840151606085015160001a6113e4878285856116d8565b945094505050506113f8565b506000905060025b9250929050565b600081600481111561141357611413611de5565b0361141b5750565b600181600481111561142f5761142f611de5565b0361147c5760405162461bcd60e51b815260206004820152601860248201527f45434453413a20696e76616c6964207369676e6174757265000000000000000060448201526064016103b5565b600281600481111561149057611490611de5565b036114dd5760405162461bcd60e51b815260206004820152601f60248201527f45434453413a20696e76616c6964207369676e6174757265206c656e6774680060448201526064016103b5565b60038160048111156114f1576114f1611de5565b0361072e5760405162461bcd60e51b815260206004820152602260248201527f45434453413a20696e76616c6964207369676e6174757265202773272076616c604482015261756560f01b60648201526084016103b5565b6115538282611083565b61064e576115608161179c565b61156b8360206117ae565b60405160200161157c929190611f31565b60408051601f198184030181529082905262461bcd60e51b82526103b591600401611fa6565b6001600160a01b0381163b61160f5760405162461bcd60e51b815260206004820152602d60248201527f455243313936373a206e657720696d706c656d656e746174696f6e206973206e60448201526c1bdd08184818dbdb9d1c9858dd609a1b60648201526084016103b5565b60008051602061201b83398151915280546001600160a01b0319166001600160a01b0392909216919091179055565b61164783611951565b6000825111806116545750805b156105cf57610ac78383611991565b600054610100900460ff166113b85760405162461bcd60e51b815260206004820152602b60248201527f496e697469616c697a61626c653a20636f6e7472616374206973206e6f74206960448201526a6e697469616c697a696e6760a81b60648201526084016103b5565b61064e8282611101565b6000807f7fffffffffffffffffffffffffffffff5d576e7357a4501ddfe92f46681b20a083111561170f5750600090506003611793565b6040805160008082526020820180845289905260ff881692820192909252606081018690526080810185905260019060a0016020604051602081039080840390855afa158015611763573d6000803e3d6000fd5b5050604051601f1901519150506001600160a01b03811661178c57600060019250925050611793565b9150600090505b94509492505050565b60606103626001600160a01b03831660145b606060006117bd836002611fd9565b6117c8906002611ff0565b67ffffffffffffffff8111156117e0576117e0611afe565b6040519080825280601f01601f19166020018201604052801561180a576020820181803683370190505b509050600360fc1b8160008151811061182557611825611dfb565b60200101906001600160f81b031916908160001a905350600f60fb1b8160018151811061185457611854611dfb565b60200101906001600160f81b031916908160001a9053506000611878846002611fd9565b611883906001611ff0565b90505b60018111156118fb576f181899199a1a9b1b9c1cb0b131b232b360811b85600f16601081106118b7576118b7611dfb565b1a60f81b8282815181106118cd576118cd611dfb565b60200101906001600160f81b031916908160001a90535060049490941c936118f481612003565b9050611886565b50831561194a5760405162461bcd60e51b815260206004820181905260248201527f537472696e67733a20686578206c656e67746820696e73756666696369656e7460448201526064016103b5565b9392505050565b61195a816115a2565b6040516001600160a01b038216907fbc7cd75a20ee27fd9adebab32041f755214dbc6bffa90cc0225b39da2e5c2d3b90600090a250565b606061194a838360405180606001604052806027815260200161203b602791396060600080856001600160a01b0316856040516119ce9190611e35565b600060405180830381855af49150503d8060008114611a09576040519150601f19603f3d011682016040523d82523d6000602084013e611a0e565b606091505b5091509150611a1f86838387611a29565b9695505050505050565b60608315611a98578251600003611a91576001600160a01b0385163b611a915760405162461bcd60e51b815260206004820152601d60248201527f416464726573733a2063616c6c20746f206e6f6e2d636f6e747261637400000060448201526064016103b5565b5081611aa2565b611aa28383611aaa565b949350505050565b815115611aba5781518083602001fd5b8060405162461bcd60e51b81526004016103b59190611fa6565b600060208284031215611ae657600080fd5b81356001600160e01b03198116811461194a57600080fd5b634e487b7160e01b600052604160045260246000fd5b604051601f8201601f1916810167ffffffffffffffff81118282101715611b3d57611b3d611afe565b604052919050565b600082601f830112611b5657600080fd5b813567ffffffffffffffff811115611b7057611b70611afe565b611b83601f8201601f1916602001611b14565b818152846020838601011115611b9857600080fd5b816020850160208301376000918101602001919091529392505050565b60008060008060608587031215611bcb57600080fd5b8435935060208086013567ffffffffffffffff80821115611beb57600080fd5b818801915088601f830112611bff57600080fd5b813581811115611c0e57600080fd5b8984828501011115611c1f57600080fd5b918301955090935060408701359080821115611c3a57600080fd5b818801915088601f830112611c4e57600080fd5b813581811115611c6057611c60611afe565b8060051b611c6f858201611b14565b918252838101850191858101908c841115611c8957600080fd5b86860192505b83831015611cc557823585811115611ca75760008081fd5b611cb58e89838a0101611b45565b8352509186019190860190611c8f565b999c989b5096995050505050505050565b600060208284031215611ce857600080fd5b5035919050565b80356001600160a01b0381168114611d0657600080fd5b919050565b60008060408385031215611d1e57600080fd5b82359150611d2e60208401611cef565b90509250929050565b600060208284031215611d4957600080fd5b61194a82611cef565b60008060408385031215611d6557600080fd5b8235915060208301358015158114611d7c57600080fd5b809150509250929050565b60008060408385031215611d9a57600080fd5b611da383611cef565b9150602083013567ffffffffffffffff811115611dbf57600080fd5b611dcb85828601611b45565b9150509250929050565b8183823760009101908152919050565b634e487b7160e01b600052602160045260246000fd5b634e487b7160e01b600052603260045260246000fd5b60005b83811015611e2c578181015183820152602001611e14565b50506000910152565b60008251611e47818460208701611e11565b9190910192915050565b634e487b7160e01b600052601160045260246000fd5b600060018201611e7957611e79611e51565b5060010190565b6020808252602c908201527f46756e6374696f6e206d7573742062652063616c6c6564207468726f7567682060408201526b19195b1959d85d1958d85b1b60a21b606082015260800190565b6020808252602c908201527f46756e6374696f6e206d7573742062652063616c6c6564207468726f7567682060408201526b6163746976652070726f787960a01b606082015260800190565b600060208284031215611f2a57600080fd5b5051919050565b7f416363657373436f6e74726f6c3a206163636f756e7420000000000000000000815260008351611f69816017850160208801611e11565b7001034b99036b4b9b9b4b733903937b6329607d1b6017918401918201528351611f9a816028840160208801611e11565b01602801949350505050565b6020815260008251806020840152611fc5816040850160208701611e11565b601f01601f19169190910160400192915050565b808202811582820484141761036257610362611e51565b8082018082111561036257610362611e51565b60008161201257612012611e51565b50600019019056fe360894a13ba1a3210667c828492db98dca3e2076cc3735a920a3ca505d382bbc416464726573733a206c6f772d6c6576656c2064656c65676174652063616c6c206661696c6564a26469706673582212208e6d42b46a92704944c0f52b7e6bb50740ab144bdd444f7f42e73743f4481cc164736f6c63430008110033",
  "devdoc": {
    "kind": "dev",
    "methods": {
      "getRoleAdmin(bytes32)": {
        "details": "Returns the admin role that controls `role`. See {grantRole} and {revokeRole}. To change a role's admin, use {_setRoleAdmin}."
      },
      "grantRole(bytes32,address)": {
        "details": "Grants `role` to `account`. If `account` had not been already granted `role`, emits a {RoleGranted} event. Requirements: - the caller must have ``role``'s admin role. May emit a {RoleGranted} event."
      },
      "hasRole(bytes32,address)": {
        "details": "Returns `true` if `account` has been granted `role`."
      },
      "proxiableUUID()": {
        "details": "Implementation of the ERC1822 {proxiableUUID} function. This returns the storage slot used by the implementation. It is used to validate the implementation's compatibility when performing an upgrade. IMPORTANT: A proxy pointing at a proxiable contract should not be considered proxiable itself, because this risks bricking a proxy that upgrades to it, by delegating to itself until out of gas. Thus it is critical that this function revert if invoked through a proxy. This is guaranteed by the `notDelegated` modifier."
      },
      "renounceRole(bytes32,address)": {
        "details": "Revokes `role` from the calling account. Roles are often managed via {grantRole} and {revokeRole}: this function's purpose is to provide a mechanism for accounts to lose their privileges if they are compromised (such as when a trusted device is misplaced). If the calling account had been revoked `role`, emits a {RoleRevoked} event. Requirements: - the caller must be `account`. May emit a {RoleRevoked} event."
      },
      "revokeRole(bytes32,address)": {
        "details": "Revokes `role` from `account`. If `account` had been granted `role`, emits a {RoleRevoked} event. Requirements: - the caller must have ``role``'s admin role. May emit a {RoleRevoked} event."
      },
      "supportsInterface(bytes4)": {
        "details": "See {IERC165-supportsInterface}."
      },
      "upgradeTo(address)": {
        "custom:oz-upgrades-unsafe-allow-reachable": "delegatecall",
        "details": "Upgrade the implementation of the proxy to `newImplementation`. Calls {_authorizeUpgrade}. Emits an {Upgraded} event."
      },
      "upgradeToAndCall(address,bytes)": {
        "custom:oz-upgrades-unsafe-allow-reachable": "delegatecall",
        "details": "Upgrade the implementation of the proxy to `newImplementation`, and subsequently execute the function call encoded in `data`. Calls {_authorizeUpgrade}. Emits an {Upgraded} event."
      }
    },
    "version": 1
  },
  "userdoc": {
    "kind": "user",
    "methods": {},
    "version": 1
  },
  "storageLayout": {
    "storage": [
      {
        "astId": 780,
        "contract": "contracts/Escrow.sol:Escrow",
        "label": "_initialized",
        "offset": 0,
        "slot": "0",
        "type": "t_uint8"
      },
      {
        "astId": 783,
        "contract": "contracts/Escrow.sol:Escrow",
        "label": "_initializing",
        "offset": 1,
        "slot": "0",
        "type": "t_bool"
      },
      {
        "astId": 762,
        "contract": "contracts/Escrow.sol:Escrow",
        "label": "__gap",
        "offset": 0,
        "slot": "1",
        "type": "t_array(t_uint256)50_storage"
      },
      {
        "astId": 1077,
        "contract": "contracts/Escrow.sol:Escrow",
        "label": "__gap",
        "offset": 0,
        "slot": "51",
        "type": "t_array(t_uint256)50_storage"
      },
      {
        "astId": 1449,
        "contract": "contracts/Escrow.sol:Escrow",
        "label": "__gap",
        "offset": 0,
        "slot": "101",
        "type": "t_array(t_uint256)50_storage"
      },
      {
        "astId": 1832,
        "contract": "contracts/Escrow.sol:Escrow",
        "label": "__gap",
        "offset": 0,
        "slot": "151",
        "type": "t_array(t_uint256)50_storage"
      },
      {
        "astId": 39,
        "contract": "contracts/Escrow.sol:Escrow",
        "label": "_roles",
        "offset": 0,
        "slot": "201",
        "type": "t_mapping(t_bytes32,t_struct(RoleData)34_storage)"
      },
      {
        "astId": 334,
        "contract": "contracts/Escrow.sol:Escrow",
        "label": "__gap",
        "offset": 0,
        "slot": "202",
        "type": "t_array(t_uint256)49_storage"
      },
      {
        "astId": 4428,
        "contract": "contracts/Escrow.sol:Escrow",
        "label": "orders",
        "offset": 0,
        "slot": "251",
        "type": "t_mapping(t_bytes32,t_struct(Order)4423_storage)"
      }
    ],
    "types": {
      "t_address": {
        "encoding": "inplace",
        "label": "address",
        "numberOfBytes": "20"
      },
      "t_address_payable": {
        "encoding": "inplace",
        "label": "address payable",
        "numberOfBytes": "20"
      },
      "t_array(t_uint256)49_storage": {
        "base": "t_uint256",
        "encoding": "inplace",
        "label": "uint256[49]",
        "numberOfBytes": "1568"
      },
      "t_array(t_uint256)50_storage": {
        "base": "t_uint256",
        "encoding": "inplace",
        "label": "uint256[50]",
        "numberOfBytes": "1600"
      },
      "t_bool": {
        "encoding": "inplace",
        "label": "bool",
        "numberOfBytes": "1"
      },
      "t_bytes32": {
        "encoding": "inplace",
        "label": "bytes32",
        "numberOfBytes": "32"
      },
      "t_enum(OrderStatus)4413": {
        "encoding": "inplace",
        "label": "enum Escrow.OrderStatus",
        "numberOfBytes": "1"
      },
      "t_mapping(t_address,t_bool)": {
        "encoding": "mapping",
        "key": "t_address",
        "label": "mapping(address => bool)",
        "numberOfBytes": "32",
        "value": "t_bool"
      },
      "t_mapping(t_bytes32,t_struct(Order)4423_storage)": {
        "encoding": "mapping",
        "key": "t_bytes32",
        "label": "mapping(bytes32 => struct Escrow.Order)",
        "numberOfBytes": "32",
        "value": "t_struct(Order)4423_storage"
      },
      "t_mapping(t_bytes32,t_struct(RoleData)34_storage)": {
        "encoding": "mapping",
        "key": "t_bytes32",
        "label": "mapping(bytes32 => struct AccessControlUpgradeable.RoleData)",
        "numberOfBytes": "32",
        "value": "t_struct(RoleData)34_storage"
      },
      "t_struct(Order)4423_storage": {
        "encoding": "inplace",
        "label": "struct Escrow.Order",
        "members": [
          {
            "astId": 4415,
            "contract": "contracts/Escrow.sol:Escrow",
            "label": "buyer",
            "offset": 0,
            "slot": "0",
            "type": "t_address_payable"
          },
          {
            "astId": 4417,
            "contract": "contracts/Escrow.sol:Escrow",
            "label": "seller",
            "offset": 0,
            "slot": "1",
            "type": "t_address_payable"
          },
          {
            "astId": 4419,
            "contract": "contracts/Escrow.sol:Escrow",
            "label": "amount",
            "offset": 0,
            "slot": "2",
            "type": "t_uint256"
          },
          {
            "astId": 4422,
            "contract": "contracts/Escrow.sol:Escrow",
            "label": "status",
            "offset": 0,
            "slot": "3",
            "type": "t_enum(OrderStatus)4413"
          }
        ],
        "numberOfBytes": "128"
      },
      "t_struct(RoleData)34_storage": {
        "encoding": "inplace",
        "label": "struct AccessControlUpgradeable.RoleData",
        "members": [
          {
            "astId": 31,
            "contract": "contracts/Escrow.sol:Escrow",
            "label": "members",
            "offset": 0,
            "slot": "0",
            "type": "t_mapping(t_address,t_bool)"
          },
          {
            "astId": 33,
            "contract": "contracts/Escrow.sol:Escrow",
            "label": "adminRole",
            "offset": 0,
            "slot": "1",
            "type": "t_bytes32"
          }
        ],
        "numberOfBytes": "64"
      },
      "t_uint256": {
        "encoding": "inplace",
        "label": "uint256",
        "numberOfBytes": "32"
      },
      "t_uint8": {
        "encoding": "inplace",
        "label": "uint8",
        "numberOfBytes": "1"
      }
    }
  }
}