{
  "address": "0x896e2b2a5f3b2CcB0FBd5561452C39cDF188Eb4B",
  "abi": [
    {
      "anonymous": false,
      "inputs": [
        {
          "indexed": false,
          "internalType": "address",
          "name": "previousAdmin",
          "type": "address"
        },
        {
          "indexed": false,
          "internalType": "address",
          "name": "newAdmin",
          "type": "address"
        }
      ],
      "name": "AdminChanged",
      "type": "event"
    },
    {
      "anonymous": false,
      "inputs": [
        {
          "indexed": true,
          "internalType": "address",
          "name": "beacon",
          "type": "address"
        }
      ],
      "name": "BeaconUpgraded",
      "type": "event"
    },
    {
      "anonymous": false,
      "inputs": [
        {
          "indexed": false,
          "internalType": "bytes32",
          "name": "orderId",
          "type": "bytes32"
        }
      ],
      "name": "DisputeCreated",
      "type": "event"
    },
    {
      "anonymous": false,
      "inputs": [
        {
          "indexed": false,
          "internalType": "uint8",
          "name": "version",
          "type": "uint8"
        }
      ],
      "name": "Initialized",
      "type": "event"
    },
    {
      "anonymous": false,
      "inputs": [
        {
          "indexed": true,
          "internalType": "uint256",
          "name": "id",
          "type": "uint256"
        },
        {
          "indexed": false,
          "internalType": "address",
          "name": "seller",
          "type": "address"
        },
        {
          "indexed": false,
          "internalType": "address",
          "name": "buyer",
          "type": "address"
        },
        {
          "indexed": false,
          "internalType": "address",
          "name": "token",
          "type": "address"
        },
        {
          "indexed": false,
          "internalType": "uint256",
          "name": "tokenId",
          "type": "uint256"
        },
        {
          "indexed": false,
          "internalType": "uint256",
          "name": "nativeTokenPrice",
          "type": "uint256"
        }
      ],
      "name": "NftSellOrder_Completed",
      "type": "event"
    },
    {
      "anonymous": false,
      "inputs": [
        {
          "indexed": true,
          "internalType": "uint256",
          "name": "id",
          "type": "uint256"
        },
        {
          "indexed": false,
          "internalType": "address",
          "name": "seller",
          "type": "address"
        },
        {
          "indexed": false,
          "internalType": "address",
          "name": "token",
          "type": "address"
        },
        {
          "indexed": false,
          "internalType": "uint256",
          "name": "tokenId",
          "type": "uint256"
        },
        {
          "indexed": false,
          "internalType": "uint256",
          "name": "nativeTokenPrice",
          "type": "uint256"
        }
      ],
      "name": "NftSellOrder_CreatedOrUpdated",
      "type": "event"
    },
    {
      "anonymous": false,
      "inputs": [
        {
          "indexed": true,
          "internalType": "uint256",
          "name": "id",
          "type": "uint256"
        }
      ],
      "name": "NftSellOrder_Deleted",
      "type": "event"
    },
    {
      "anonymous": false,
      "inputs": [
        {
          "indexed": false,
          "internalType": "bytes32",
          "name": "orderId",
          "type": "bytes32"
        }
      ],
      "name": "OrderCancelled",
      "type": "event"
    },
    {
      "anonymous": false,
      "inputs": [
        {
          "indexed": false,
          "internalType": "bytes32",
          "name": "orderId",
          "type": "bytes32"
        }
      ],
      "name": "OrderConfirmed",
      "type": "event"
    },
    {
      "anonymous": false,
      "inputs": [
        {
          "indexed": false,
          "internalType": "bytes32",
          "name": "orderId",
          "type": "bytes32"
        },
        {
          "indexed": true,
          "internalType": "address",
          "name": "buyer",
          "type": "address"
        },
        {
          "indexed": true,
          "internalType": "address",
          "name": "seller",
          "type": "address"
        },
        {
          "indexed": false,
          "internalType": "uint256",
          "name": "amount",
          "type": "uint256"
        }
      ],
      "name": "OrderInitiated",
      "type": "event"
    },
    {
      "anonymous": false,
      "inputs": [
        {
          "indexed": true,
          "internalType": "bytes32",
          "name": "role",
          "type": "bytes32"
        },
        {
          "indexed": true,
          "internalType": "bytes32",
          "name": "previousAdminRole",
          "type": "bytes32"
        },
        {
          "indexed": true,
          "internalType": "bytes32",
          "name": "newAdminRole",
          "type": "bytes32"
        }
      ],
      "name": "RoleAdminChanged",
      "type": "event"
    },
    {
      "anonymous": false,
      "inputs": [
        {
          "indexed": true,
          "internalType": "bytes32",
          "name": "role",
          "type": "bytes32"
        },
        {
          "indexed": true,
          "internalType": "address",
          "name": "account",
          "type": "address"
        },
        {
          "indexed": true,
          "internalType": "address",
          "name": "sender",
          "type": "address"
        }
      ],
      "name": "RoleGranted",
      "type": "event"
    },
    {
      "anonymous": false,
      "inputs": [
        {
          "indexed": true,
          "internalType": "bytes32",
          "name": "role",
          "type": "bytes32"
        },
        {
          "indexed": true,
          "internalType": "address",
          "name": "account",
          "type": "address"
        },
        {
          "indexed": true,
          "internalType": "address",
          "name": "sender",
          "type": "address"
        }
      ],
      "name": "RoleRevoked",
      "type": "event"
    },
    {
      "anonymous": false,
      "inputs": [
        {
          "indexed": true,
          "internalType": "address",
          "name": "implementation",
          "type": "address"
        }
      ],
      "name": "Upgraded",
      "type": "event"
    },
    {
      "inputs": [],
      "name": "DEFAULT_ADMIN_ROLE",
      "outputs": [
        {
          "internalType": "bytes32",
          "name": "",
          "type": "bytes32"
        }
      ],
      "stateMutability": "view",
      "type": "function"
    },
    {
      "inputs": [],
      "name": "SUPPORT_ROLE",
      "outputs": [
        {
          "internalType": "bytes32",
          "name": "",
          "type": "bytes32"
        }
      ],
      "stateMutability": "view",
      "type": "function"
    },
    {
      "inputs": [
        {
          "internalType": "bytes32",
          "name": "orderId",
          "type": "bytes32"
        },
        {
          "internalType": "string",
          "name": "_message",
          "type": "string"
        },
        {
          "internalType": "bytes[]",
          "name": "_signatures",
          "type": "bytes[]"
        }
      ],
      "name": "cancel",
      "outputs": [],
      "stateMutability": "nonpayable",
      "type": "function"
    },
    {
      "inputs": [
        {
          "internalType": "uint256",
          "name": "_orderId",
          "type": "uint256"
        }
      ],
      "name": "cancelSellNftOrder",
      "outputs": [],
      "stateMutability": "nonpayable",
      "type": "function"
    },
    {
      "inputs": [
        {
          "internalType": "uint256",
          "name": "_orderId",
          "type": "uint256"
        }
      ],
      "name": "completeSellNftOrder",
      "outputs": [],
      "stateMutability": "payable",
      "type": "function"
    },
    {
      "inputs": [
        {
          "internalType": "bytes32",
          "name": "orderId",
          "type": "bytes32"
        }
      ],
      "name": "confirmOrder",
      "outputs": [],
      "stateMutability": "nonpayable",
      "type": "function"
    },
    {
      "inputs": [
        {
          "internalType": "address",
          "name": "_token",
          "type": "address"
        },
        {
          "internalType": "uint256",
          "name": "_tokenId",
          "type": "uint256"
        },
        {
          "internalType": "uint256",
          "name": "_nativeTokenPrice",
          "type": "uint256"
        }
      ],
      "name": "createSellNftOrder",
      "outputs": [],
      "stateMutability": "nonpayable",
      "type": "function"
    },
    {
      "inputs": [
        {
          "internalType": "bytes32",
          "name": "orderId",
          "type": "bytes32"
        }
      ],
      "name": "disputeOrder",
      "outputs": [],
      "stateMutability": "nonpayable",
      "type": "function"
    },
    {
      "inputs": [
        {
          "internalType": "bytes32",
          "name": "role",
          "type": "bytes32"
        }
      ],
      "name": "getRoleAdmin",
      "outputs": [
        {
          "internalType": "bytes32",
          "name": "",
          "type": "bytes32"
        }
      ],
      "stateMutability": "view",
      "type": "function"
    },
    {
      "inputs": [
        {
          "internalType": "bytes32",
          "name": "role",
          "type": "bytes32"
        },
        {
          "internalType": "address",
          "name": "account",
          "type": "address"
        }
      ],
      "name": "grantRole",
      "outputs": [],
      "stateMutability": "nonpayable",
      "type": "function"
    },
    {
      "inputs": [
        {
          "internalType": "bytes32",
          "name": "role",
          "type": "bytes32"
        },
        {
          "internalType": "address",
          "name": "account",
          "type": "address"
        }
      ],
      "name": "hasRole",
      "outputs": [
        {
          "internalType": "bool",
          "name": "",
          "type": "bool"
        }
      ],
      "stateMutability": "view",
      "type": "function"
    },
    {
      "inputs": [],
      "name": "initialize",
      "outputs": [],
      "stateMutability": "nonpayable",
      "type": "function"
    },
    {
      "inputs": [
        {
          "internalType": "bytes32",
          "name": "orderId",
          "type": "bytes32"
        },
        {
          "internalType": "address",
          "name": "seller",
          "type": "address"
        }
      ],
      "name": "initiateOrder",
      "outputs": [],
      "stateMutability": "payable",
      "type": "function"
    },
    {
      "inputs": [
        {
          "internalType": "uint256",
          "name": "",
          "type": "uint256"
        }
      ],
      "name": "nftSellOrders",
      "outputs": [
        {
          "internalType": "address",
          "name": "seller",
          "type": "address"
        },
        {
          "internalType": "address",
          "name": "token",
          "type": "address"
        },
        {
          "internalType": "uint256",
          "name": "tokenId",
          "type": "uint256"
        },
        {
          "internalType": "uint256",
          "name": "nativeTokenPrice",
          "type": "uint256"
        }
      ],
      "stateMutability": "view",
      "type": "function"
    },
    {
      "inputs": [],
      "name": "proxiableUUID",
      "outputs": [
        {
          "internalType": "bytes32",
          "name": "",
          "type": "bytes32"
        }
      ],
      "stateMutability": "view",
      "type": "function"
    },
    {
      "inputs": [
        {
          "internalType": "bytes32",
          "name": "role",
          "type": "bytes32"
        },
        {
          "internalType": "address",
          "name": "account",
          "type": "address"
        }
      ],
      "name": "renounceRole",
      "outputs": [],
      "stateMutability": "nonpayable",
      "type": "function"
    },
    {
      "inputs": [
        {
          "internalType": "bytes32",
          "name": "orderId",
          "type": "bytes32"
        },
        {
          "internalType": "bool",
          "name": "cancel",
          "type": "bool"
        }
      ],
      "name": "resolveDispute",
      "outputs": [],
      "stateMutability": "nonpayable",
      "type": "function"
    },
    {
      "inputs": [
        {
          "internalType": "bytes32",
          "name": "role",
          "type": "bytes32"
        },
        {
          "internalType": "address",
          "name": "account",
          "type": "address"
        }
      ],
      "name": "revokeRole",
      "outputs": [],
      "stateMutability": "nonpayable",
      "type": "function"
    },
    {
      "inputs": [
        {
          "internalType": "bytes4",
          "name": "interfaceId",
          "type": "bytes4"
        }
      ],
      "name": "supportsInterface",
      "outputs": [
        {
          "internalType": "bool",
          "name": "",
          "type": "bool"
        }
      ],
      "stateMutability": "view",
      "type": "function"
    },
    {
      "inputs": [
        {
          "internalType": "address",
          "name": "newImplementation",
          "type": "address"
        }
      ],
      "name": "upgradeTo",
      "outputs": [],
      "stateMutability": "nonpayable",
      "type": "function"
    },
    {
      "inputs": [
        {
          "internalType": "address",
          "name": "newImplementation",
          "type": "address"
        },
        {
          "internalType": "bytes",
          "name": "data",
          "type": "bytes"
        }
      ],
      "name": "upgradeToAndCall",
      "outputs": [],
      "stateMutability": "payable",
      "type": "function"
    }
  ],
  "numDeployments": 1,
  "solcInputHash": "809086f05e5ba38efcfee5c8d4ad8bd2",
  "bytecode": "0x60a06040523060805234801561001457600080fd5b5060805161278d61004c60003960008181610978015281816109b801528181610df301528181610e33015261108d015261278d6000f3fe60806040526004361061012a5760003560e01c806350d18b70116100ab57806391d148541161006f57806391d148541461031457806394b059ab14610334578063a217fddf14610368578063bf38d9f21461037d578063d547741f146103f7578063eae8c8661461041757600080fd5b806350d18b701461029757806352d1902d146102b75780635ae08764146102cc5780638129fc1c146102ec5780638a700e881461030157600080fd5b806336568abe116100f257806336568abe146102045780633659cfe6146102245780633e4e37921461024457806343a0e3e6146102645780634f1ef2861461028457600080fd5b806301ffc9a71461012f578063185832c214610164578063248a9ca3146101865780632ecbfccd146101c45780632f2ff15d146101e4575b600080fd5b34801561013b57600080fd5b5061014f61014a366004612137565b61042a565b60405190151581526020015b60405180910390f35b34801561017057600080fd5b5061018461017f366004612218565b610461565b005b34801561019257600080fd5b506101b66101a1366004612339565b600090815260c9602052604090206001015490565b60405190815260200161015b565b3480156101d057600080fd5b506101846101df366004612367565b6106a3565b3480156101f057600080fd5b506101846101ff36600461239c565b6108c6565b34801561021057600080fd5b5061018461021f36600461239c565b6108f0565b34801561023057600080fd5b5061018461023f3660046123cc565b61096e565b34801561025057600080fd5b5061018461025f366004612339565b610a4d565b34801561027057600080fd5b5061018461027f3660046123e9565b610b63565b610184610292366004612413565b610de9565b3480156102a357600080fd5b506101846102b2366004612339565b610eb5565b3480156102c357600080fd5b506101b6611080565b3480156102d857600080fd5b506101846102e7366004612339565b611133565b3480156102f857600080fd5b50610184611292565b61018461030f36600461239c565b6113b2565b34801561032057600080fd5b5061014f61032f36600461239c565b61150e565b34801561034057600080fd5b506101b67fe1bb029b7f4f8898e3ea44ceab083b5d93b14e8dd01ea4b170b110de8472fe6481565b34801561037457600080fd5b506101b6600081565b34801561038957600080fd5b506103cc610398366004612339565b60fb6020526000908152604090208054600182015460028301546003909301546001600160a01b0392831693919092169184565b604080516001600160a01b03958616815294909316602085015291830152606082015260800161015b565b34801561040357600080fd5b5061018461041236600461239c565b611539565b610184610425366004612339565b61155e565b60006001600160e01b03198216637965db0b60e01b148061045b57506301ffc9a760e01b6001600160e01b03198316145b92915050565b80516002146104b75760405162461bcd60e51b815260206004820152601c60248201527f496e76616c6964206e756d626572206f66207369676e6174757265730000000060448201526064015b60405180910390fd5b600061050784846040516104cc929190612463565b60405180910390207f19457468657265756d205369676e6564204d6573736167653a0a3332000000006000908152601c91909152603c902090565b600086815260fc602052604090209091506001600382015460ff16600481111561053357610533612473565b146105805760405162461bcd60e51b815260206004820152601860248201527f496e76616c696420737461746520666f722063616e63656c000000000000000060448201526064016104ae565b60005b83518110156106675760006105d28583815181106105a3576105a3612489565b60200260200101516040516020016105bb91906124c3565b60408051601f19818403018152919052859061174f565b9050811580156105ee575082546001600160a01b038281169116145b806106135750816001148015610613575060018301546001600160a01b038281169116145b6106545760405162461bcd60e51b8152602060048201526012602482015271496e76616c6964207369676e61747572657360701b60448201526064016104ae565b508061065f816124f5565b915050610583565b506040518681527f5152abf959f6564662358c2e52b702259b78bac5ee7842a0f01937e670efcc7d9060200160405180910390a1505050505050565b6040516331a9108f60e11b815260048101839052839033906001600160a01b03831690636352211e90602401602060405180830381865afa1580156106ec573d6000803e3d6000fd5b505050506040513d601f19601f82011682018060405250810190610710919061250e565b6001600160a01b03161461075f5760405162461bcd60e51b8152602060048201526016602482015275165bdd48191bdb89dd081bdddb881d1a1a5cc813919560521b60448201526064016104ae565b6040516323b872dd60e01b8152336004820152306024820152604481018490526001600160a01b038216906323b872dd90606401600060405180830381600087803b1580156107ad57600080fd5b505af11580156107c1573d6000803e3d6000fd5b50506040516bffffffffffffffffffffffff19606088901b1660208201526034810186905260009250605401905060408051601f19818403018152828252805160209182012060808085018452338086526001600160a01b038b81168588018181528888018d81526060808b018e8152600089815260fb8b528b90209b518c549087166001600160a01b0319918216178d55935160018d018054919097169416939093179094555160028a015551600390980197909755855191825293810195909552928401889052908301869052925082917fbc198725860155a879eb1db8254d4fadbd7eb9a7c2be8d7ec369f6ae2cc6b0ab910160405180910390a25050505050565b600082815260c960205260409020600101546108e181611773565b6108eb838361177d565b505050565b6001600160a01b03811633146109605760405162461bcd60e51b815260206004820152602f60248201527f416363657373436f6e74726f6c3a2063616e206f6e6c792072656e6f756e636560448201526e103937b632b9903337b91039b2b63360891b60648201526084016104ae565b61096a8282611803565b5050565b6001600160a01b037f00000000000000000000000000000000000000000000000000000000000000001630036109b65760405162461bcd60e51b81526004016104ae9061252b565b7f00000000000000000000000000000000000000000000000000000000000000006001600160a01b03166109ff600080516020612711833981519152546001600160a01b031690565b6001600160a01b031614610a255760405162461bcd60e51b81526004016104ae90612577565b610a2e8161186a565b60408051600080825260208201909252610a4a918391906118ae565b50565b600081815260fc6020526040902080546001600160a01b03163314610ab45760405162461bcd60e51b815260206004820181905260248201527f4f6e6c79207468652062757965722063616e207374617274206469737075746560448201526064016104ae565b6001600382015460ff166004811115610acf57610acf612473565b14610b1c5760405162461bcd60e51b815260206004820152601d60248201527f4f72646572206973206e6f7420696e20612076616c696420737461746500000060448201526064016104ae565b6003818101805460ff191690911790556040518281527fc5e88e0e17c4064b281ccf73a1bebb1b2c329fd5815939182883f85e7fa67d339060200160405180910390a15050565b7fe1bb029b7f4f8898e3ea44ceab083b5d93b14e8dd01ea4b170b110de8472fe64610b8d81611773565b600083815260fc6020526040902060038082015460ff166004811115610bb557610bb5612473565b14610c025760405162461bcd60e51b815260206004820152601b60248201527f4f72646572206973206e6f7420696e2076616c6964207374617465000000000060448201526064016104ae565b8215610cf657805460028201546040516000926001600160a01b031691908381818185875af1925050503d8060008114610c58576040519150601f19603f3d011682016040523d82523d6000602084013e610c5d565b606091505b5050905080610cae5760405162461bcd60e51b815260206004820152601d60248201527f4661696c656420746f2073656e6420457468657220746f20627579657200000060448201526064016104ae565b60038201805460ff191660041790556040518581527f5152abf959f6564662358c2e52b702259b78bac5ee7842a0f01937e670efcc7d9060200160405180910390a150610de3565b600181015460028201546040516000926001600160a01b031691908381818185875af1925050503d8060008114610d49576040519150601f19603f3d011682016040523d82523d6000602084013e610d4e565b606091505b5050905080610d9f5760405162461bcd60e51b815260206004820152601e60248201527f4661696c656420746f2073656e6420457468657220746f2073656c6c6572000060448201526064016104ae565b60038201805460ff191660021790556040518581527f027631263e23bef717bc3e6111c73c0e6600933fbacc5868456a31ff1c1111079060200160405180910390a1505b50505050565b6001600160a01b037f0000000000000000000000000000000000000000000000000000000000000000163003610e315760405162461bcd60e51b81526004016104ae9061252b565b7f00000000000000000000000000000000000000000000000000000000000000006001600160a01b0316610e7a600080516020612711833981519152546001600160a01b031690565b6001600160a01b031614610ea05760405162461bcd60e51b81526004016104ae90612577565b610ea98261186a565b61096a828260016118ae565b600081815260fc6020526040902080546001600160a01b03163314610f285760405162461bcd60e51b8152602060048201526024808201527f4f6e6c79207468652062757965722063616e20636f6e6669726d20746865206f604482015263393232b960e11b60648201526084016104ae565b6001600382015460ff166004811115610f4357610f43612473565b14610f905760405162461bcd60e51b815260206004820152601d60248201527f4f72646572206973206e6f7420696e20612076616c696420737461746500000060448201526064016104ae565b600181015460028201546040516000926001600160a01b031691908381818185875af1925050503d8060008114610fe3576040519150601f19603f3d011682016040523d82523d6000602084013e610fe8565b606091505b50509050806110395760405162461bcd60e51b815260206004820152601e60248201527f4661696c656420746f2073656e6420457468657220746f2073656c6c6572000060448201526064016104ae565b60038201805460ff191660021790556040518381527f027631263e23bef717bc3e6111c73c0e6600933fbacc5868456a31ff1c1111079060200160405180910390a1505050565b6000306001600160a01b037f000000000000000000000000000000000000000000000000000000000000000016146111205760405162461bcd60e51b815260206004820152603860248201527f555550535570677261646561626c653a206d757374206e6f742062652063616c60448201527f6c6564207468726f7567682064656c656761746563616c6c000000000000000060648201526084016104ae565b5060008051602061271183398151915290565b600081815260fb60205260409020546001600160a01b031633146111a75760405162461bcd60e51b815260206004820152602560248201527f596f7520617265206e6f74207468652063726561746f72206f6620746869732060448201526437b93232b960d91b60648201526084016104ae565b600081815260fb60205260409081902060018101548154600283015493516323b872dd60e01b81523060048201526001600160a01b0391821660248201526044810194909452919291169081906323b872dd90606401600060405180830381600087803b15801561121757600080fd5b505af115801561122b573d6000803e3d6000fd5b505050600084815260fb602052604080822080546001600160a01b03199081168255600182018054909116905560028101839055600301829055518592507f1b136cecd08cec20ef309cd07e648d106ee9e6435439a9baf236325873dda7df9190a2505050565b600054610100900460ff16158080156112b25750600054600160ff909116105b806112cc5750303b1580156112cc575060005460ff166001145b61132f5760405162461bcd60e51b815260206004820152602e60248201527f496e697469616c697a61626c653a20636f6e747261637420697320616c72656160448201526d191e481a5b9a5d1a585b1a5e995960921b60648201526084016104ae565b6000805460ff191660011790558015611352576000805461ff0019166101001790555b61135a611a19565b611362611a36565b61136a611a61565b8015610a4a576000805461ff0019169055604051600181527f7f26b83ff96e1f2b6a682f133852f6798a09c465da95921460cefb38474024989060200160405180910390a150565b600034116114025760405162461bcd60e51b815260206004820181905260248201527f416d6f756e74206d7573742062652067726561746572207468616e207a65726f60448201526064016104ae565b600082815260fc602052604081206003015460ff16600481111561142857611428612473565b146114755760405162461bcd60e51b815260206004820152601960248201527f4f7264657220616c726561647920696e697469616c697a65640000000000000060448201526064016104ae565b600082815260fc602052604090208054336001600160a01b0319918216178255600180830180549092166001600160a01b0385161790915534600283015560038201805460ff191682800217905550604080518481523460208201526001600160a01b0384169133917f1d583aff818ddfe7eb5a6dee761d6418028396935be03415c535d57df7969c0f910160405180910390a3505050565b600091825260c9602090815260408084206001600160a01b0393909316845291905290205460ff1690565b600082815260c9602052604090206001015461155481611773565b6108eb8383611803565b600081815260fb6020526040902080546001600160a01b03166115d25760405162461bcd60e51b815260206004820152602660248201527f4f7264657220627920676976656e206f7264657220696420646f6573206e6f7460448201526508195e1a5cdd60d21b60648201526084016104ae565b348160030154146116375760405162461bcd60e51b815260206004820152602960248201527f6f7264657220707269636520616e6420706179656420616d6f756e7420646f656044820152680e6dce840dac2e8c6d60bb1b60648201526084016104ae565b600181015460028201546040516323b872dd60e01b815230600482015233602482015260448101919091526001600160a01b039091169081906323b872dd90606401600060405180830381600087803b15801561169357600080fd5b505af11580156116a7573d6000803e3d6000fd5b50508354600185015460028601546003870154604080516001600160a01b0395861681523360208201529490931692840192909252606083015260808201528592507f51c8740838a5b65122dc34faec8b6f4b5c05145f542ec1302437b3b5f6266485915060a00160405180910390a25050600090815260fb6020526040812080546001600160a01b0319908116825560018201805490911690556002810182905560030155565b600080600061175e8585611a88565b9150915061176b81611acd565b509392505050565b610a4a8133611c17565b611787828261150e565b61096a57600082815260c9602090815260408083206001600160a01b03851684529091529020805460ff191660011790556117bf3390565b6001600160a01b0316816001600160a01b0316837f2f8788117e7eff1d82e926ec794901d17c78024a50270940304540a733656f0d60405160405180910390a45050565b61180d828261150e565b1561096a57600082815260c9602090815260408083206001600160a01b0385168085529252808320805460ff1916905551339285917ff6391f5c32d9c69d2a47ea670b442974b53935d1edc7fd64eb21e047a839171b9190a45050565b61187560003361150e565b610a4a5760405162461bcd60e51b815260206004820152600a60248201526927b7363c9020b236b4b760b11b60448201526064016104ae565b7f4910fdfa16fed3260ed0e7147f7cc6da11a60208b5b9406d12a635614ffd91435460ff16156118e1576108eb83611c70565b826001600160a01b03166352d1902d6040518163ffffffff1660e01b8152600401602060405180830381865afa92505050801561193b575060408051601f3d908101601f19168201909252611938918101906125c3565b60015b61199e5760405162461bcd60e51b815260206004820152602e60248201527f45524331393637557067726164653a206e657720696d706c656d656e7461746960448201526d6f6e206973206e6f74205555505360901b60648201526084016104ae565b6000805160206127118339815191528114611a0d5760405162461bcd60e51b815260206004820152602960248201527f45524331393637557067726164653a20756e737570706f727465642070726f786044820152681a58589b195555525160ba1b60648201526084016104ae565b506108eb838383611d0c565b611a21611a61565b611a29611a61565b611a34600033611d31565b565b600054610100900460ff16611a5d5760405162461bcd60e51b81526004016104ae906125dc565b611a345b600054610100900460ff16611a345760405162461bcd60e51b81526004016104ae906125dc565b6000808251604103611abe5760208301516040840151606085015160001a611ab287828585611d3b565b94509450505050611ac6565b506000905060025b9250929050565b6000816004811115611ae157611ae1612473565b03611ae95750565b6001816004811115611afd57611afd612473565b03611b4a5760405162461bcd60e51b815260206004820152601860248201527f45434453413a20696e76616c6964207369676e6174757265000000000000000060448201526064016104ae565b6002816004811115611b5e57611b5e612473565b03611bab5760405162461bcd60e51b815260206004820152601f60248201527f45434453413a20696e76616c6964207369676e6174757265206c656e6774680060448201526064016104ae565b6003816004811115611bbf57611bbf612473565b03610a4a5760405162461bcd60e51b815260206004820152602260248201527f45434453413a20696e76616c6964207369676e6174757265202773272076616c604482015261756560f01b60648201526084016104ae565b611c21828261150e565b61096a57611c2e81611dff565b611c39836020611e11565b604051602001611c4a929190612627565b60408051601f198184030181529082905262461bcd60e51b82526104ae9160040161269c565b6001600160a01b0381163b611cdd5760405162461bcd60e51b815260206004820152602d60248201527f455243313936373a206e657720696d706c656d656e746174696f6e206973206e60448201526c1bdd08184818dbdb9d1c9858dd609a1b60648201526084016104ae565b60008051602061271183398151915280546001600160a01b0319166001600160a01b0392909216919091179055565b611d1583611fb4565b600082511180611d225750805b156108eb57610de38383611ff4565b61096a828261177d565b6000807f7fffffffffffffffffffffffffffffff5d576e7357a4501ddfe92f46681b20a0831115611d725750600090506003611df6565b6040805160008082526020820180845289905260ff881692820192909252606081018690526080810185905260019060a0016020604051602081039080840390855afa158015611dc6573d6000803e3d6000fd5b5050604051601f1901519150506001600160a01b038116611def57600060019250925050611df6565b9150600090505b94509492505050565b606061045b6001600160a01b03831660145b60606000611e208360026126cf565b611e2b9060026126e6565b67ffffffffffffffff811115611e4357611e43612161565b6040519080825280601f01601f191660200182016040528015611e6d576020820181803683370190505b509050600360fc1b81600081518110611e8857611e88612489565b60200101906001600160f81b031916908160001a905350600f60fb1b81600181518110611eb757611eb7612489565b60200101906001600160f81b031916908160001a9053506000611edb8460026126cf565b611ee69060016126e6565b90505b6001811115611f5e576f181899199a1a9b1b9c1cb0b131b232b360811b85600f1660108110611f1a57611f1a612489565b1a60f81b828281518110611f3057611f30612489565b60200101906001600160f81b031916908160001a90535060049490941c93611f57816126f9565b9050611ee9565b508315611fad5760405162461bcd60e51b815260206004820181905260248201527f537472696e67733a20686578206c656e67746820696e73756666696369656e7460448201526064016104ae565b9392505050565b611fbd81611c70565b6040516001600160a01b038216907fbc7cd75a20ee27fd9adebab32041f755214dbc6bffa90cc0225b39da2e5c2d3b90600090a250565b6060611fad8383604051806060016040528060278152602001612731602791396060600080856001600160a01b03168560405161203191906124c3565b600060405180830381855af49150503d806000811461206c576040519150601f19603f3d011682016040523d82523d6000602084013e612071565b606091505b50915091506120828683838761208c565b9695505050505050565b606083156120fb5782516000036120f4576001600160a01b0385163b6120f45760405162461bcd60e51b815260206004820152601d60248201527f416464726573733a2063616c6c20746f206e6f6e2d636f6e747261637400000060448201526064016104ae565b5081612105565b612105838361210d565b949350505050565b81511561211d5781518083602001fd5b8060405162461bcd60e51b81526004016104ae919061269c565b60006020828403121561214957600080fd5b81356001600160e01b031981168114611fad57600080fd5b634e487b7160e01b600052604160045260246000fd5b604051601f8201601f1916810167ffffffffffffffff811182821017156121a0576121a0612161565b604052919050565b600082601f8301126121b957600080fd5b813567ffffffffffffffff8111156121d3576121d3612161565b6121e6601f8201601f1916602001612177565b8181528460208386010111156121fb57600080fd5b816020850160208301376000918101602001919091529392505050565b6000806000806060858703121561222e57600080fd5b8435935060208086013567ffffffffffffffff8082111561224e57600080fd5b818801915088601f83011261226257600080fd5b81358181111561227157600080fd5b898482850101111561228257600080fd5b91830195509093506040870135908082111561229d57600080fd5b818801915088601f8301126122b157600080fd5b8135818111156122c3576122c3612161565b8060051b6122d2858201612177565b918252838101850191858101908c8411156122ec57600080fd5b86860192505b838310156123285782358581111561230a5760008081fd5b6123188e89838a01016121a8565b83525091860191908601906122f2565b999c989b5096995050505050505050565b60006020828403121561234b57600080fd5b5035919050565b6001600160a01b0381168114610a4a57600080fd5b60008060006060848603121561237c57600080fd5b833561238781612352565b95602085013595506040909401359392505050565b600080604083850312156123af57600080fd5b8235915060208301356123c181612352565b809150509250929050565b6000602082840312156123de57600080fd5b8135611fad81612352565b600080604083850312156123fc57600080fd5b82359150602083013580151581146123c157600080fd5b6000806040838503121561242657600080fd5b823561243181612352565b9150602083013567ffffffffffffffff81111561244d57600080fd5b612459858286016121a8565b9150509250929050565b8183823760009101908152919050565b634e487b7160e01b600052602160045260246000fd5b634e487b7160e01b600052603260045260246000fd5b60005b838110156124ba5781810151838201526020016124a2565b50506000910152565b600082516124d581846020870161249f565b9190910192915050565b634e487b7160e01b600052601160045260246000fd5b600060018201612507576125076124df565b5060010190565b60006020828403121561252057600080fd5b8151611fad81612352565b6020808252602c908201527f46756e6374696f6e206d7573742062652063616c6c6564207468726f7567682060408201526b19195b1959d85d1958d85b1b60a21b606082015260800190565b6020808252602c908201527f46756e6374696f6e206d7573742062652063616c6c6564207468726f7567682060408201526b6163746976652070726f787960a01b606082015260800190565b6000602082840312156125d557600080fd5b5051919050565b6020808252602b908201527f496e697469616c697a61626c653a20636f6e7472616374206973206e6f74206960408201526a6e697469616c697a696e6760a81b606082015260800190565b7f416363657373436f6e74726f6c3a206163636f756e742000000000000000000081526000835161265f81601785016020880161249f565b7001034b99036b4b9b9b4b733903937b6329607d1b601791840191820152835161269081602884016020880161249f565b01602801949350505050565b60208152600082518060208401526126bb81604085016020870161249f565b601f01601f19169190910160400192915050565b808202811582820484141761045b5761045b6124df565b8082018082111561045b5761045b6124df565b600081612708576127086124df565b50600019019056fe360894a13ba1a3210667c828492db98dca3e2076cc3735a920a3ca505d382bbc416464726573733a206c6f772d6c6576656c2064656c65676174652063616c6c206661696c6564a26469706673582212207791c9e18210ba0655fe56cdecff9eb887a3c91fcbd721ea6e257a6ed146a83464736f6c63430008110033",
  "devdoc": {
    "kind": "dev",
    "methods": {
      "getRoleAdmin(bytes32)": {
        "details": "Returns the admin role that controls `role`. See {grantRole} and {revokeRole}. To change a role's admin, use {_setRoleAdmin}."
      },
      "grantRole(bytes32,address)": {
        "details": "Grants `role` to `account`. If `account` had not been already granted `role`, emits a {RoleGranted} event. Requirements: - the caller must have ``role``'s admin role. May emit a {RoleGranted} event."
      },
      "hasRole(bytes32,address)": {
        "details": "Returns `true` if `account` has been granted `role`."
      },
      "proxiableUUID()": {
        "details": "Implementation of the ERC1822 {proxiableUUID} function. This returns the storage slot used by the implementation. It is used to validate the implementation's compatibility when performing an upgrade. IMPORTANT: A proxy pointing at a proxiable contract should not be considered proxiable itself, because this risks bricking a proxy that upgrades to it, by delegating to itself until out of gas. Thus it is critical that this function revert if invoked through a proxy. This is guaranteed by the `notDelegated` modifier."
      },
      "renounceRole(bytes32,address)": {
        "details": "Revokes `role` from the calling account. Roles are often managed via {grantRole} and {revokeRole}: this function's purpose is to provide a mechanism for accounts to lose their privileges if they are compromised (such as when a trusted device is misplaced). If the calling account had been revoked `role`, emits a {RoleRevoked} event. Requirements: - the caller must be `account`. May emit a {RoleRevoked} event."
      },
      "revokeRole(bytes32,address)": {
        "details": "Revokes `role` from `account`. If `account` had been granted `role`, emits a {RoleRevoked} event. Requirements: - the caller must have ``role``'s admin role. May emit a {RoleRevoked} event."
      },
      "supportsInterface(bytes4)": {
        "details": "See {IERC165-supportsInterface}."
      },
      "upgradeTo(address)": {
        "custom:oz-upgrades-unsafe-allow-reachable": "delegatecall",
        "details": "Upgrade the implementation of the proxy to `newImplementation`. Calls {_authorizeUpgrade}. Emits an {Upgraded} event."
      },
      "upgradeToAndCall(address,bytes)": {
        "custom:oz-upgrades-unsafe-allow-reachable": "delegatecall",
        "details": "Upgrade the implementation of the proxy to `newImplementation`, and subsequently execute the function call encoded in `data`. Calls {_authorizeUpgrade}. Emits an {Upgraded} event."
      }
    },
    "version": 1
  },
  "userdoc": {
    "kind": "user",
    "methods": {},
    "version": 1
  },
  "storageLayout": {
    "storage": [
      {
        "astId": 780,
        "contract": "contracts/Marketplace.sol:Marketplace",
        "label": "_initialized",
        "offset": 0,
        "slot": "0",
        "type": "t_uint8"
      },
      {
        "astId": 783,
        "contract": "contracts/Marketplace.sol:Marketplace",
        "label": "_initializing",
        "offset": 1,
        "slot": "0",
        "type": "t_bool"
      },
      {
        "astId": 762,
        "contract": "contracts/Marketplace.sol:Marketplace",
        "label": "__gap",
        "offset": 0,
        "slot": "1",
        "type": "t_array(t_uint256)50_storage"
      },
      {
        "astId": 1077,
        "contract": "contracts/Marketplace.sol:Marketplace",
        "label": "__gap",
        "offset": 0,
        "slot": "51",
        "type": "t_array(t_uint256)50_storage"
      },
      {
        "astId": 1449,
        "contract": "contracts/Marketplace.sol:Marketplace",
        "label": "__gap",
        "offset": 0,
        "slot": "101",
        "type": "t_array(t_uint256)50_storage"
      },
      {
        "astId": 1832,
        "contract": "contracts/Marketplace.sol:Marketplace",
        "label": "__gap",
        "offset": 0,
        "slot": "151",
        "type": "t_array(t_uint256)50_storage"
      },
      {
        "astId": 39,
        "contract": "contracts/Marketplace.sol:Marketplace",
        "label": "_roles",
        "offset": 0,
        "slot": "201",
        "type": "t_mapping(t_bytes32,t_struct(RoleData)34_storage)"
      },
      {
        "astId": 334,
        "contract": "contracts/Marketplace.sol:Marketplace",
        "label": "__gap",
        "offset": 0,
        "slot": "202",
        "type": "t_array(t_uint256)49_storage"
      },
      {
        "astId": 5014,
        "contract": "contracts/Marketplace.sol:Marketplace",
        "label": "nftSellOrders",
        "offset": 0,
        "slot": "251",
        "type": "t_mapping(t_uint256,t_struct(NftSellOrder)5009_storage)"
      },
      {
        "astId": 4562,
        "contract": "contracts/Marketplace.sol:Marketplace",
        "label": "orders",
        "offset": 0,
        "slot": "252",
        "type": "t_mapping(t_bytes32,t_struct(Order)4557_storage)"
      }
    ],
    "types": {
      "t_address": {
        "encoding": "inplace",
        "label": "address",
        "numberOfBytes": "20"
      },
      "t_address_payable": {
        "encoding": "inplace",
        "label": "address payable",
        "numberOfBytes": "20"
      },
      "t_array(t_uint256)49_storage": {
        "base": "t_uint256",
        "encoding": "inplace",
        "label": "uint256[49]",
        "numberOfBytes": "1568"
      },
      "t_array(t_uint256)50_storage": {
        "base": "t_uint256",
        "encoding": "inplace",
        "label": "uint256[50]",
        "numberOfBytes": "1600"
      },
      "t_bool": {
        "encoding": "inplace",
        "label": "bool",
        "numberOfBytes": "1"
      },
      "t_bytes32": {
        "encoding": "inplace",
        "label": "bytes32",
        "numberOfBytes": "32"
      },
      "t_enum(OrderStatus)4547": {
        "encoding": "inplace",
        "label": "enum Escrow.OrderStatus",
        "numberOfBytes": "1"
      },
      "t_mapping(t_address,t_bool)": {
        "encoding": "mapping",
        "key": "t_address",
        "label": "mapping(address => bool)",
        "numberOfBytes": "32",
        "value": "t_bool"
      },
      "t_mapping(t_bytes32,t_struct(Order)4557_storage)": {
        "encoding": "mapping",
        "key": "t_bytes32",
        "label": "mapping(bytes32 => struct Escrow.Order)",
        "numberOfBytes": "32",
        "value": "t_struct(Order)4557_storage"
      },
      "t_mapping(t_bytes32,t_struct(RoleData)34_storage)": {
        "encoding": "mapping",
        "key": "t_bytes32",
        "label": "mapping(bytes32 => struct AccessControlUpgradeable.RoleData)",
        "numberOfBytes": "32",
        "value": "t_struct(RoleData)34_storage"
      },
      "t_mapping(t_uint256,t_struct(NftSellOrder)5009_storage)": {
        "encoding": "mapping",
        "key": "t_uint256",
        "label": "mapping(uint256 => struct NftMarketplace.NftSellOrder)",
        "numberOfBytes": "32",
        "value": "t_struct(NftSellOrder)5009_storage"
      },
      "t_struct(NftSellOrder)5009_storage": {
        "encoding": "inplace",
        "label": "struct NftMarketplace.NftSellOrder",
        "members": [
          {
            "astId": 5002,
            "contract": "contracts/Marketplace.sol:Marketplace",
            "label": "seller",
            "offset": 0,
            "slot": "0",
            "type": "t_address"
          },
          {
            "astId": 5004,
            "contract": "contracts/Marketplace.sol:Marketplace",
            "label": "token",
            "offset": 0,
            "slot": "1",
            "type": "t_address"
          },
          {
            "astId": 5006,
            "contract": "contracts/Marketplace.sol:Marketplace",
            "label": "tokenId",
            "offset": 0,
            "slot": "2",
            "type": "t_uint256"
          },
          {
            "astId": 5008,
            "contract": "contracts/Marketplace.sol:Marketplace",
            "label": "nativeTokenPrice",
            "offset": 0,
            "slot": "3",
            "type": "t_uint256"
          }
        ],
        "numberOfBytes": "128"
      },
      "t_struct(Order)4557_storage": {
        "encoding": "inplace",
        "label": "struct Escrow.Order",
        "members": [
          {
            "astId": 4549,
            "contract": "contracts/Marketplace.sol:Marketplace",
            "label": "buyer",
            "offset": 0,
            "slot": "0",
            "type": "t_address_payable"
          },
          {
            "astId": 4551,
            "contract": "contracts/Marketplace.sol:Marketplace",
            "label": "seller",
            "offset": 0,
            "slot": "1",
            "type": "t_address_payable"
          },
          {
            "astId": 4553,
            "contract": "contracts/Marketplace.sol:Marketplace",
            "label": "amount",
            "offset": 0,
            "slot": "2",
            "type": "t_uint256"
          },
          {
            "astId": 4556,
            "contract": "contracts/Marketplace.sol:Marketplace",
            "label": "status",
            "offset": 0,
            "slot": "3",
            "type": "t_enum(OrderStatus)4547"
          }
        ],
        "numberOfBytes": "128"
      },
      "t_struct(RoleData)34_storage": {
        "encoding": "inplace",
        "label": "struct AccessControlUpgradeable.RoleData",
        "members": [
          {
            "astId": 31,
            "contract": "contracts/Marketplace.sol:Marketplace",
            "label": "members",
            "offset": 0,
            "slot": "0",
            "type": "t_mapping(t_address,t_bool)"
          },
          {
            "astId": 33,
            "contract": "contracts/Marketplace.sol:Marketplace",
            "label": "adminRole",
            "offset": 0,
            "slot": "1",
            "type": "t_bytes32"
          }
        ],
        "numberOfBytes": "64"
      },
      "t_uint256": {
        "encoding": "inplace",
        "label": "uint256",
        "numberOfBytes": "32"
      },
      "t_uint8": {
        "encoding": "inplace",
        "label": "uint8",
        "numberOfBytes": "1"
      }
    }
  }
}